:100000000C942A000C9484060C94D4060C942407B7
:100010000C9486020C9436020C94E6010C94460172
:100020000C9496010C94F6000C94A6000C945600C7
:100030000C943C000C943C000C943C000C943C0050
:100040000C943C000C943C000C943C000C943C0040
:100050000C943C0011241FBECFE5D8E0DEBFCDBF1D
:1000600010E0A0E6B0E001C01D92AA36B107E1F7AA
:100070000E94750E0C948E0F0C940000DF93CF93AA
:1000800000D0CDB7DEB79A83898389819A810097A2
:1000900041F0E0916400F091650089819A8191833B
:1000A00080830F900F90CF91DF9108951F920F9250
:1000B0000FB60F9211242F933F934F935F936F933B
:1000C0007F938F939F93AF93BF93EF93FF93DF93B0
:1000D000CF93CDB7DEB7E0916400F09165008081E9
:1000E0009181009741F0E0916400F09165000190EA
:1000F000F081E02D0995CF91DF91FF91EF91BF91B4
:10010000AF919F918F917F916F915F914F913F91AF
:100110002F910F900FBE0F901F901895DF93CF93E4
:1001200000D0CDB7DEB79A83898389819A81009701
:1001300041F0E0916400F091650089819A81938398
:1001400082830F900F90CF91DF9108951F920F92AD
:100150000FB60F9211242F933F934F935F936F939A
:100160007F938F939F93AF93BF93EF93FF93DF930F
:10017000CF93CDB7DEB7E0916400F0916500828146
:100180009381009741F0E0916400F0916500028056
:10019000F381E02D0995CF91DF91FF91EF91BF9110
:1001A000AF919F918F917F916F915F914F913F910F
:1001B0002F910F900FBE0F901F901895DF93CF9344
:1001C00000D0CDB7DEB79A83898389819A81009761
:1001D00041F0E0916400F091650089819A819583F6
:1001E00084830F900F90CF91DF9108951F920F920B
:1001F0000FB60F9211242F933F934F935F936F93FA
:100200007F938F939F93AF93BF93EF93FF93DF936E
:10021000CF93CDB7DEB7E0916400F09165008481A3
:100220009581009741F0E0916400F09165000480B1
:10023000F581E02D0995CF91DF91FF91EF91BF916D
:10024000AF919F918F917F916F915F914F913F916E
:100250002F910F900FBE0F901F901895DF93CF93A3
:1002600000D0CDB7DEB79A83898389819A810097C0
:1002700041F0E0916400F091650089819A81978353
:1002800086830F900F90CF91DF9108951F920F9268
:100290000FB60F9211242F933F934F935F936F9359
:1002A0007F938F939F93AF93BF93EF93FF93DF93CE
:1002B000CF93CDB7DEB7E0916400F0916500868101
:1002C0009781009741F0E0916400F091650006800D
:1002D000F781E02D0995CF91DF91FF91EF91BF91CB
:1002E000AF919F918F917F916F915F914F913F91CE
:1002F0002F910F900FBE0F901F901895DF93CF9303
:1003000000D0CDB7DEB79A83898389819A8100971F
:1003100041F0E0916400F091650089819A819187B4
:1003200080870F900F90CF91DF9108951F920F92C9
:100330000FB60F9211242F933F934F935F936F93B8
:100340007F938F939F93AF93BF93EF93FF93DF932D
:10035000CF93CDB7DEB7E0916400F0916500808562
:100360009185009741F0E0916400F0916500008470
:10037000F185E02D0995CF91DF91FF91EF91BF912C
:10038000AF919F918F917F916F915F914F913F912D
:100390002F910F900FBE0F901F901895DF93CF9362
:1003A00000D0CDB7DEB79A83898389819A8100977F
:1003B00041F0E0916400F091650089819A81938712
:1003C00082870F900F90CF91DF9108951F920F9227
:1003D0000FB60F9211242F933F934F935F936F9318
:1003E0007F938F939F93AF93BF93EF93FF93DF938D
:1003F000CF93CDB7DEB7E0916400F09165008285C0
:100400009385009741F0E0916400F09165000284CB
:10041000F385E02D0995CF91DF91FF91EF91BF9189
:10042000AF919F918F917F916F915F914F913F918C
:100430002F910F900FBE0F901F901895DF93CF93C1
:1004400000D0CDB7DEB79A83898389819A810097DE
:1004500041F0E0916400F091650089819A8195876F
:1004600084870F900F90CF91DF9108951F920F9284
:100470000FB60F9211242F933F934F935F936F9377
:100480007F938F939F93AF93BF93EF93FF93DF93EC
:10049000CF93CDB7DEB7E0916400F091650084851D
:1004A0009585009741F0E0916400F0916500048427
:1004B000F585E02D0995CF91DF91FF91EF91BF91E7
:1004C000AF919F918F917F916F915F914F913F91EC
:1004D0002F910F900FBE0F901F901895DF93CF9321
:1004E00000D0CDB7DEB79A83898389819A8100973E
:1004F00041F0E0916400F091650089819A819787CD
:1005000086870F900F90CF91DF9108951F920F92E1
:100510000FB60F9211242F933F934F935F936F93D6
:100520007F938F939F93AF93BF93EF93FF93DF934B
:10053000CF93CDB7DEB7E0916400F091650086857A
:100540009785009741F0E0916400F0916500068482
:10055000F785E02D0995CF91DF91FF91EF91BF9144
:10056000AF919F918F917F916F915F914F913F914B
:100570002F910F900FBE0F901F901895DF93CF9380
:1005800000D000D0CDB7DEB79A838983E981FA81A4
:1005900081850E942404E981FA818185282F30E039
:1005A0003C832B838B819C818130910509F44EC063
:1005B0002B813C812230310509F4B1C08B819C81B3
:1005C000009709F0EEC0A2E5B0E0E981FA818481EC
:1005D00095818C93A3E5B0E0E3E5F0E0808180684D
:1005E0008C93E981FA818085882341F4A9E5B0E004
:1005F000E9E5F0E0808181608C931AC0E981FA819D
:1006000080858130A9F4ACE5B0E0E981FA81808190
:1006100091818C93A3E5B0E0E3E5F0E08081886010
:100620008C93A9E5B0E0E9E5F0E0808182608C93ED
:10063000A3E5B0E0E3E5F0E08081982F987FE981C1
:10064000FA8186818770892B8C93ABC0ACE4B0E0D3
:10065000E981FA818481958111969C938E93AFE410
:10066000B0E0EFE4F0E0808188608C93E981FA816A
:100670008085882341F4A9E5B0E0E9E5F0E08081D8
:1006800084608C933EC0E981FA8180858130C9F510
:10069000E981FA8182858823C1F4AAE4B0E0E98186
:1006A000FA818081918111969C938E93AEE4B0E0A3
:1006B000EEE4F0E0808188608C93A9E5B0E0E9E5A4
:1006C000F0E0808180618C931CC0E981FA81828591
:1006D0008130B9F4AFE4B0E0EFE4F0E08081846011
:1006E0008C93A8E4B0E0E981FA818281938111962C
:1006F0009C938E93A9E5B0E0E9E5F0E08081886005
:100700008C93AEE4B0E0EEE4F0E08081982F987F27
:10071000E981FA8186818770892B8C9342C0A4E499
:10072000B0E0E981FA81848195818C93A5E4B0E001
:10073000E5E4F0E0808180688C93E981FA8180852E
:10074000882341F4A9E5B0E0E9E5F0E08081806428
:100750008C931AC0E981FA8180858130A9F4A3E4E1
:10076000B0E0E981FA81808191818C93A5E4B0E0C9
:10077000E5E4F0E0808188608C93A9E5B0E0E9E5EC
:10078000F0E0808180688C93A5E4B0E0E5E4F0E0DF
:100790008081982F987FE981FA8187818770892BE2
:1007A0008C930F900F900F900F90CF91DF91089541
:1007B000DF93CF9300D000D0CDB7DEB79A83898383
:1007C000E981FA818185282F30E03C832B838B815E
:1007D0009C818130910589F02B813C81223031054B
:1007E00029F18B819C81009741F5ACE5B0E0E9816E
:1007F000FA81808191818C9320C0AAE4B0E0E981E4
:10080000FA818081918111969C938E93E981FA817E
:100810008285813091F4E8E4F0E0A981BA811296F2
:100820008D919C9113979183808307C0A3E4B0E0DE
:10083000E981FA81808191818C930F900F900F90C4
:100840000F90CF91DF910895DF93CF9300D00F9257
:10085000CDB7DEB789838981282F30E03B832A8397
:100860008A819B818130910519F12A813B81223057
:1008700031052CF48A819B81009761F056C02A8152
:100880003B812230310531F18A819B818330910592
:1008900079F14BC0E3E5F0E01082E2E5F0E0108290
:1008A000A9E5B0E0E9E5F0E080818C7F8C933DC064
:1008B000EFE4F0E01082EEE4F0E01082ECE4F0E02F
:1008C00011821082A9E5B0E0E9E5F0E08081837E45
:1008D0008C932BC0E5E4F0E01082E4E4F0E01082B9
:1008E000A9E5B0E0E9E5F0E080818F738C931DC04D
:1008F000A9E5B0E0E9E5F0E0808180728C93E3E562
:10090000F0E01082E2E5F0E01082EFE4F0E0108227
:10091000EEE4F0E01082ECE4F0E011821082E5E415
:10092000F0E01082E4E4F0E010820F900F900F905E
:10093000CF91DF910895DF93CF9300D00F92CDB781
:10094000DEB789838981282F30E03B832A838A811F
:100950009B8181309105C9F02A813B81223031058C
:100960002CF48A819B81009761F022C02A813B810F
:100970002230310579F08A819B818330910571F0B5
:1009800017C0E2E5F0E0108213C0ECE4F0E0118261
:1009900010820EC0E4E4F0E010820AC0E2E5F0E06C
:1009A0001082ECE4F0E011821082E4E4F0E01082C6
:1009B0000F900F900F90CF91DF9108950F931F9399
:1009C000DF93CF9300D000D0CDB7DEB79A83898371
:1009D000E981FA818185282F30E03C832B838B814C
:1009E0009C818130910509F443C0EB81FC81E230A8
:1009F000F10509F40FC12B813C812115310509F066
:100A000046C180E00E949B04ACE5B0E0E981FA8138
:100A1000828193818C9381E063E041E00E944609EA
:100A2000A3E5B0E0E3E5F0E080818F778C93E98186
:100A3000FA818085823029F4E3E5F0E088E680835E
:100A400009C0E981FA818085833021F4E3E5F0E093
:100A500080E68083A3E5B0E0E3E5F0E08081982FB5
:100A6000987FE981FA8186818770892B8C930FC1E9
:100A700081E00E949B04A6E4B0E0E981FA818081D4
:100A8000918111969C938E93AAE4B0E0E981FA815A
:100A90008281938111969C938E9383E065E041E07F
:100AA0000E944609AFE4B0E0EFE4F0E08081877F88
:100AB0008C93E981FA818085823009F05BC0AEE4D5
:100AC000B0E0EEE4F0E0808180618C93AEE4B0E0D1
:100AD000EEE4F0E0808188608C93AFE4B0E0EFE476
:100AE000F0E0808182608C93AFE4B0E0EFE4F0E06E
:100AF00080818E7F8C93AFE4B0E0EFE4F0E0808102
:100B000080688C93AFE4B0E0EFE4F0E08081806235
:100B10008C93AFE4B0E0EFE4F0E080818F7B8C93C6
:100B2000AFE4B0E0EFE4F0E080818F7E8C93E98168
:100B3000FA818385823009F05FC0AFE4B0E0EFE472
:100B4000F0E080818B7F8C9383E064E041E00E9441
:100B50004609AFE4B0E0EFE4F0E0808180628C937E
:100B6000A8E4B0E0E981FA818481958111969C9393
:100B70008E9342C0E981FA8180858330E9F5AEE445
:100B8000B0E0EEE4F0E0808180618C93AEE4B0E010
:100B9000EEE4F0E08081877F8C93AFE4B0E0EFE497
:100BA000F0E0808182608C93AFE4B0E0EFE4F0E0AD
:100BB00080818E7F8C93E981FA8183858230E1F494
:100BC000AFE4B0E0EFE4F0E080818B7F8C9383E0D2
:100BD00064E041E00E944609AFE4B0E0EFE4F0E0F9
:100BE000808180628C93A8E4B0E0E981FA818481FD
:100BF000958111969C938E93AEE4B0E0EEE4F0E024
:100C00008081982F987FE981FA8186818770892B6E
:100C10008C933DC082E00E949B0403E410E0E981D4
:100C2000FA818281938124E630E0B9010E947A0F33
:100C3000CB01F801808383E067E041E00E94460930
:100C4000A5E4B0E0E5E4F0E080818F778C93E98162
:100C5000FA818085823029F4E5E4F0E088E680833B
:100C600009C0E981FA818085833021F4E5E4F0E070
:100C700080E68083A5E4B0E0E5E4F0E08081982F91
:100C8000987FE981FA8187818770892B8C930F90F7
:100C90000F900F900F90CF91DF911F910F910895BA
:100CA000DF93CF93CDB7DEB7AFE5B0E0EFE5F0E08F
:100CB000808180688C93CF91DF910895DF93CF93EB
:100CC000CDB7DEB7AFE5B0E0EFE5F0E080818F773C
:100CD0008C93CF91DF910895DF93CF9300D0CDB760
:100CE000DEB79A83898389819A81009741F0E091E8
:100CF0006800F091690089819A81918380830F90C7
:100D00000F90CF91DF9108951F920F920FB60F921F
:100D100011242F933F934F935F936F937F938F9300
:100D20009F93AF93BF93EF93FF93DF93CF93CDB791
:100D3000DEB7E0916800F0916900808191810097B1
:100D400041F0E0916800F09169000190F081E02DA0
:100D50000995CF91DF91FF91EF91BF91AF919F9155
:100D60008F917F916F915F914F913F912F910F9054
:100D70000FBE0F901F901895DF93CF9300D0CDB783
:100D8000DEB79A83898389819A81009741F0E09147
:100D90006800F091690089819A81938382830F9022
:100DA0000F90CF91DF9108951F920F920FB60F927F
:100DB00011242F933F934F935F936F937F938F9360
:100DC0009F93AF93BF93EF93FF93DF93CF93CDB7F1
:100DD000DEB7E0916800F09169008281938100970D
:100DE00041F0E0916800F09169000280F381E02D0C
:100DF0000995CF91DF91FF91EF91BF91AF919F91B5
:100E00008F917F916F915F914F913F912F910F90B3
:100E10000FBE0F901F901895DF93CF9300D0CDB7E2
:100E2000DEB79A83898389819A81009741F0E091A6
:100E30006800F091690089819A81958384830F907D
:100E40000F90CF91DF9108951F920F920FB60F92DE
:100E500011242F933F934F935F936F937F938F93BF
:100E60009F93AF93BF93EF93FF93DF93CF93CDB750
:100E7000DEB7E0916800F091690084819581009768
:100E800041F0E0916800F09169000480F581E02D67
:100E90000995CF91DF91FF91EF91BF91AF919F9114
:100EA0008F917F916F915F914F913F912F910F9013
:100EB0000FBE0F901F901895DF93CF9300D000D0F6
:100EC000CDB7DEB78A831982AFE5B0E0EFE5F0E099
:100ED000808180688C938A81282F30E03C832B832B
:100EE0008B819C818130910589F02B813C8122305E
:100EF0003105A1F08B819C810097C1F4ABE5B0E096
:100F0000EBE5F0E0808180648C9312C0ABE5B0E04B
:100F1000EBE5F0E0808180688C930AC0ABE5B0E03F
:100F2000EBE5F0E0808180628C9302C081E08983F0
:100F300089810F900F900F900F90CF91DF910895BE
:100F4000DF93CF9300D000D0CDB7DEB78A8319826C
:100F50008A81282F30E03C832B838B819C818130D8
:100F60009105E9F02B813C81223031052CF48B81F5
:100F70009C81009761F02BC02B813C812230310590
:100F8000B1F08B819C8183309105C9F020C0ABE525
:100F9000B0E0EBE5F0E080818F7B8C931AC0ABE58D
:100FA000B0E0EBE5F0E080818F778C9312C0ABE589
:100FB000B0E0EBE5F0E080818F7D8C930AC0AFE577
:100FC000B0E0EFE5F0E080818F778C9302C081E0A4
:100FD000898389810F900F900F900F90CF91DF91AF
:100FE0000895DF93CF9300D000D00F92CDB7DEB736
:100FF0008A836B8319828A81282F30E03D832C837A
:101000008C819D818130910501F12C813D812230BF
:10101000310589F18C819D81009709F042C0E5E599
:10102000F0E0808180936700809167008C7F8093DF
:101030006700909167008B81892B80936700E5E5BD
:10104000F0E08091670080832EC0E5E5F0E08081CC
:101050008093670080916700837F80936700909101
:1010600067008B81892B80936700E5E5F0E0809134
:101070006700808318C0E4E5F0E08081809367001A
:10108000809167008F7B80936700909167008B81D0
:10109000892B80936700E4E5F0E08091670080830E
:1010A00002C081E0898389810F900F900F900F908B
:1010B0000F90CF91DF910895DF93CF9300D000D0B0
:1010C0000F92CDB7DEB78A836B8319828A81282F6E
:1010D00030E03D832C838C819D8181309105D1F05E
:1010E0002C813D81223031052CF48C819D8100972B
:1010F00061F01FC02C813D812230310581F08C814F
:101100009D818330910581F014C0E9E3F0E08B818B
:10111000818311C0E6E3F0E08B8181830CC0E3E3BF
:10112000F0E08B81818307C0E0E3F0E08B81818375
:1011300002C081E0898389810F900F900F900F90FA
:101140000F90CF91DF910895DF93CF9300D000D01F
:101150000F92CDB7DEB78A836B8319828A81282FDD
:1011600030E03D832C838C819D8181309105D1F0CD
:101170002C813D81223031052CF48C819D8100979A
:1011800061F01FC02C813D812230310581F08C81BE
:101190009D818330910581F014C0E9E3F0E08B81FB
:1011A000828311C0E6E3F0E08B8182830CC0E3E32D
:1011B000F0E08B81828307C0E0E3F0E08B818283E3
:1011C00002C081E0898389810F900F900F900F906A
:1011D0000F90CF91DF910895DF93CF9300D000D08F
:1011E00000D0CDB7DEB78A837C836B8319828B8175
:1011F0009C81009709F43EC08A81282F30E03E830D
:101200002D838D819E8181309105E1F02D813E817C
:10121000223031052CF48D819E81009761F027C02A
:101220002D813E8122303105A1F08D819E81833058
:101230009105B1F01CC0E9E3F0E08081EB81FC8115
:1012400080831AC0E6E3F0E08081EB81FC8180833B
:1012500013C0E3E3F0E08081EB81FC8180830CC06C
:10126000E0E3F0E08081EB81FC81808305C081E0D8
:10127000898302C081E08983898126960FB6F8941C
:10128000DEBF0FBECDBFCF91DF910895DF93CF9327
:10129000CDB7DEB72A970FB6F894DEBF0FBECDBF2D
:1012A0008A836B834C8319828B81883008F00DC14F
:1012B0008C81282F30E03A87298789859A85009785
:1012C00039F029853A852130310509F480C0FAC00A
:1012D0008A81282F30E038872F838F81988581304D
:1012E000910569F12F813885223031052CF48F81E9
:1012F0009885009769F068C02F81388522303105C4
:10130000A9F18F8198858330910509F446C05CC0AE
:10131000A9E3B0E0E9E3F0E08181482F8B81282F39
:1013200030E081E090E0022E02C0880F991F0A94FD
:10133000E2F78095842311968C931197C8C0A6E399
:10134000B0E0E6E3F0E08181482F8B81282F30E088
:1013500081E090E0022E02C0880F991F0A94E2F704
:101360008095842311968C931197B1C0A3E3B0E0CC
:10137000E3E3F0E08181482F8B81282F30E081E08A
:1013800090E0022E02C0880F991F0A94E2F7809520
:10139000842311968C9311979AC0A0E3B0E0E0E308
:1013A000F0E08181482F8B81282F30E081E090E0B0
:1013B000022E02C0880F991F0A94E2F780958423B9
:1013C00011968C93119783C081E0898380C08A81B4
:1013D000282F30E03E832D838D819E8181309105C1
:1013E00061F12D813E81223031052CF48D819E8169
:1013F000009769F064C02D813E812230310599F15A
:101400008D819E818330910509F443C058C0A9E3C2
:10141000B0E0E9E3F0E08181482F8B81282F30E0B4
:1014200081E090E0022E02C0880F991F0A94E2F733
:10143000842B11968C9311974AC0A6E3B0E0E6E3A3
:10144000F0E08181482F8B81282F30E081E090E00F
:10145000022E02C0880F991F0A94E2F7842B11967E
:101460008C93119734C0A3E3B0E0E3E3F0E0818113
:10147000482F8B81282F30E081E090E0022E02C0BF
:10148000880F991F0A94E2F7842B11968C93119779
:101490001EC0A0E3B0E0E0E3F0E08181482F8B8143
:1014A000282F30E081E090E0022E02C0880F991FC3
:1014B0000A94E2F7842B11968C93119708C081E06F
:1014C000898305C081E0898302C081E089838981A5
:1014D0002A960FB6F894DEBF0FBECDBFCF91DF9135
:1014E0000895DF93CF93CDB7DEB72A970FB6F89460
:1014F000DEBF0FBECDBF8A836B834C8319828B8185
:10150000883008F00DC18C81282F30E03A87298778
:1015100089859A85009739F029853A8521303105EA
:1015200009F480C0FAC08A81282F30E038872F83E1
:101530008F8198858130910569F12F81388522301E
:1015400031052CF48F819885009769F068C02F8150
:10155000388522303105A9F18F8198858330910536
:1015600009F446C05CC0A9E3B0E0E9E3F0E08281A1
:10157000482F8B81282F30E081E090E0022E02C0BE
:10158000880F991F0A94E2F78095842312968C9312
:101590001297C8C0A6E3B0E0E6E3F0E08281482FEE
:1015A0008B81282F30E081E090E0022E02C0880F6E
:1015B000991F0A94E2F78095842312968C931297D0
:1015C000B1C0A3E3B0E0E3E3F0E08281482F8B8178
:1015D000282F30E081E090E0022E02C0880F991F92
:1015E0000A94E2F78095842312968C9312979AC0FE
:1015F000A0E3B0E0E0E3F0E08281482F8B81282F68
:1016000030E081E090E0022E02C0880F991F0A941A
:10161000E2F78095842312968C93129783C081E021
:10162000898380C08A81282F30E03E832D838D817D
:101630009E818130910561F12D813E8122303105FD
:101640002CF48D819E81009769F064C02D813E81CC
:101650002230310599F18D819E818330910509F405
:1016600043C058C0A9E3B0E0E9E3F0E08281482F2D
:101670008B81282F30E081E090E0022E02C0880F9D
:10168000991F0A94E2F7842B12968C9312974AC002
:10169000A6E3B0E0E6E3F0E08281482F8B81282FBB
:1016A00030E081E090E0022E02C0880F991F0A947A
:1016B000E2F7842B12968C93129734C0A3E3B0E028
:1016C000E3E3F0E08281482F8B81282F30E081E036
:1016D00090E0022E02C0880F991F0A94E2F7842B33
:1016E00012968C9312971EC0A0E3B0E0E0E3F0E006
:1016F0008281482F8B81282F30E081E090E0022EFC
:1017000002C0880F991F0A94E2F7842B12968C93DB
:10171000129708C081E0898305C081E0898302C0F7
:1017200081E0898389812A960FB6F894DEBF0FBEC7
:10173000CDBFCF91DF910895DF93CF9300D000D03C
:101740000F92CDB7DEB78A836B8319828B81883085
:1017500008F07BC08A81282F30E03D832C838C8168
:101760009D818130910561F12C813D8122303105CF
:101770002CF48C819D81009769F064C02C813D819F
:101780002230310599F18C819D818330910509F4D6
:1017900043C058C0A9E3B0E0E9E3F0E08281482FFC
:1017A0008B81282F30E081E090E0022E02C0880F6C
:1017B000991F0A94E2F7842712968C93129747C0D8
:1017C000A6E3B0E0E6E3F0E08281482F8B81282F8A
:1017D00030E081E090E0022E02C0880F991F0A9449
:1017E000E2F7842712968C93129731C0A3E3B0E0FE
:1017F000E3E3F0E08281482F8B81282F30E081E005
:1018000090E0022E02C0880F991F0A94E2F7842705
:1018100012968C9312971BC0A0E3B0E0E0E3F0E0D7
:101820008281482F8B81282F30E081E090E0022ECA
:1018300002C0880F991F0A94E2F7842712968C93AE
:10184000129705C081E0898302C081E08983898184
:101850000F900F900F900F900F90CF91DF91089500
:10186000DF93CF93CDB7DEB727970FB6F894DEBFDF
:101870000FBECDBF8A836B835D834C8319828C81BD
:101880009D81009709F47BC08B81883008F074C07B
:101890008A81282F30E03F832E834E815F81413043
:1018A000510559F18E819F818230910534F42E814A
:1018B0003F812115310569F05CC04E815F81423066
:1018C000510579F18E819F818330910509F43DC0E6
:1018D00050C0E9E3F0E08081282F30E08B81882F31
:1018E00090E0A90102C0559547958A95E2F7CA0193
:1018F0008170EC81FD81808344C0E6E3F0E080816B
:10190000282F30E08B81882F90E0A90102C05595E7
:1019100047958A95E2F7CA018170EC81FD81808349
:1019200030C0E3E3F0E08081282F30E08B81882F06
:1019300090E0A90102C0559547958A95E2F7CA0142
:101940008170EC81FD8180831CC0E0E3F0E0808148
:10195000282F30E08B81882F90E0A90102C0559597
:1019600047958A95E2F7CA018170EC81FD818083F9
:1019700008C081E0898305C081E0898302C081E0DD
:101980008983898127960FB6F894DEBF0FBECDBF3D
:10199000CF91DF910895DF93CF93CDB7DEB780E08D
:1019A00060E041E00E94460980E061E041E00E9481
:1019B000460980E062E041E00E94460980E063E081
:1019C00041E00E944609CF91DF910895DF93CF93C4
:1019D000CDB7DEB782E060E041E00E94460982E0D8
:1019E00061E041E00E94460982E062E041E00E943D
:1019F000460982E063E041E00E94460982E064E03B
:101A000041E00E94460982E065E041E00E9446090B
:101A1000CF91DF910895DF93CF93CDB7DEB782E00A
:101A200060E041E00E94710A82E061E040E00E94D3
:101A3000710A82E062E041E00E94710A82E063E0A4
:101A400040E00E94710ACF91DF910895DF93CF9318
:101A5000CDB7DEB782E060E040E00E94710A82E02C
:101A600061E041E00E94710A82E062E040E00E9491
:101A7000710A82E063E041E00E94710ACF91DF9138
:101A80000895DF93CF93CDB7DEB782E060E041E009
:101A90000E94710A82E061E040E00E94710A82E0E7
:101AA00062E040E00E94710A82E063E041E00E944F
:101AB000710ACF91DF910895DF93CF93CDB7DEB751
:101AC00082E060E040E00E94710A82E061E041E073
:101AD0000E94710A82E062E041E00E94710A82E0A5
:101AE00063E040E00E94710ACF91DF910895DF9397
:101AF000CF93CDB7DEB782E060E040E00E94710A8C
:101B000082E061E040E00E94710A82E062E040E031
:101B10000E94710A82E063E040E00E94710ACF9166
:101B2000DF910895DF93CF93CDB7DEB783E061E017
:101B300040E00E94460983E061E041E00E94710AB2
:101B400083E063E041E00E94710ACF91DF91089544
:101B5000DF93CF93CDB7DEB70E94770D1092600070
:101B60001092610081E00E942404CF91DF910895DA
:101B7000DF93CF9300D0CDB7DEB7809162008F5F47
:101B80008093620080916100282F30E03A8329839E
:101B900089819A818130910531F029813A81223001
:101BA000310509F140C080916200863059F482E02D
:101BB00064E040E00E94710A82E065E040E00E943B
:101BC000710A3BC0809162008431B9F582E064E023
:101BD00041E00E94710A82E065E041E00E94710AE2
:101BE000109262002AC0809162008A3059F482E02B
:101BF00064E040E00E94710A82E065E040E00E94FB
:101C0000710A1BC0809162008431B9F482E064E003
:101C100041E00E94710A82E065E041E00E94710AA1
:101C2000109262000AC082E064E041E00E94710A02
:101C300082E065E041E00E94710A0F900F90CF9121
:101C4000DF910895DF93CF93CDB7DEB78091630026
:101C50008F5F80936300809163008F3039F482E05E
:101C60008093600082E0809361003CC080916300BB
:101C70008D3321F485E08093600034C0809163004F
:101C8000863421F483E0809360002CC0809163004F
:101C90008F3421F485E08093600024C0809163003C
:101CA000883539F484E08093600081E0809361009E
:101CB00019C0809163008B3721F485E08093600028
:101CC00011C080916300843821F483E08093600028
:101CD00009C0809163008D3829F485E0809360000D
:101CE00010926300CF91DF910895DF93CF93CDB72A
:101CF000DEB769970FB6F894DEBF0FBECDBF0E9466
:101D0000CB0C0E94E60C0E94920D82E08A87198615
:101D100082E08887CE0101960E94BE0288EB9DE09A
:101D20000E941E0281E08D8B1C8A82E08A8B80ECEF
:101D30009DEB998B888B82E29EE00E94DE0081E021
:101D40000E945C0781E06CE00E94F10788EA9DE058
:101D50000E94BC060E94500681E08F8B9E01295E86
:101D60003F4F83E061E0A9010E94300C8F898823F6
:101D700049F481E080936000CE010C960E94BE027F
:101D80001092610080916000282F30E0398F288FF9
:101D9000888D998D8230910509F450C0288D398D38
:101DA0002330310554F4888D998D0097C9F0288D22
:101DB000398D2130310559F1CFCF888D998D8430FF
:101DC000910509F480C0288D398D243031050CF43B
:101DD0004CC0888D998D8530910509F45DC0BCCFCC
:101DE0000E94770D80E062E040E00E94710A80E08E
:101DF00061E040E00E94710A80E063E040E00E9400
:101E0000710A80E060E040E00E94710AA5CF0E9464
:101E10000B0D80E062E040E00E94710A80E061E02A
:101E200040E00E94710A80E063E040E00E94710A95
:101E300080E060E040E00E94710A8ECF0E940B0DAE
:101E400080E062E040E00E94710A80E061E040E0F2
:101E50000E94710A80E063E040E00E94710A80E025
:101E600060E041E00E94710A77CF0E945C0D80E043
:101E700060E040E00E94710A80E061E040E00E9482
:101E8000710A80E062E040E00E94710A80E063E055
:101E900041E00E94710A60CF0E94770D80E060E00F
:101EA00040E00E94710A80E061E040E00E94710A17
:101EB00080E063E040E00E94710A80E062E041E07F
:101EC0000E94710A49CF0E940B0D80E060E040E063
:101ED0000E94710A80E062E040E00E94710A80E0A6
:101EE00063E040E00E94710A80E061E041E00E940E
:101EF000710A32CFAA1BBB1B51E107C0AA1FBB1F2F
:101F0000A617B70710F0A61BB70B881F991F5A9585
:101F1000A9F780959095BC01CD010895F894FFCF65
:00000001FF
